:400000000008002011000000990100009901000010B501F069F800F01DFA00F0C5F8C04610B50B4C12232360182000F0E7FFE0221201084B1A60084A084B1A600022084B2A
:400040001A604032074B1A601123236010BDC046300010400003014040FF008000000140280003400401014010B572B60B4A0C4B1A608022D2020B4B1A6005220A4B1A607A
:400080008232FF32094B1A60843AFF3A084B1A60084A094B1A60FFF7C3FF10BDEEEE00000003024008000440000104400801044000030440A40D00000803044000000000DE
:4000C0000000000000000000000000000000000000000000000000000000000000000000000000000000000000000000000000000000000000000000000000000000000000
:4001000010B5064C2378002B07D1054B002B02D0044800E000BF0123237010BD100100200000000024170000084B10B5002B03D00749084800E000BF07480368002B00D1D7
:4001400010BD064B002BFBD09847F9E7000000001401002024170000880000200000000010B562B600F008FD002809D0002000F0C3FFFA20800000F0C3FE00F0FDFB09E0D3
:40018000002000F0C5FFFA20800000F0B9FE002000F0B2F9FEE7C04610B501F081FA03680C2B00D1FEE7FEE770B50F4E0F4D13E029686B68AC68002202E001C901C3043205
:4001C000A242FAD1E868002202E0002102C304328242FAD11035013E002EE9D101F066FAFFF7BEFFFEE7C04601000000D017000010B500230AE0032B03D89A000B4950589D
:4002000000E00B4899000B4A885001331F2BF2D9FFF72AFF084B1B68002B02D10022064B1A6080229205054B1A6010BD0000000099010000000000208000002008ED00E09D
:40024000002306E04218013A12789B189BB2013989B20029F6D1584280B270470047C04610B58022024B1A6000F03EFE10BDC04680000020F0B583B00D006B469E1DDA80A9
:4002800001230B7048701400AA70130ACB70171DB9B22800FFF7D4FFE855631D000AE854A31D1722EA540734A1B296233200280000F012FC03B0F0BD70B505000E0014004C
:4002C000002802D0002000F0D5FD002004E0013CAB19E35CC018C0B2002CF8D170BDC04670B5A0B00500C0097F232C009C43002304E01A5D6E46F25401339BB27F2BF8D908
:400300007F231D406B4659550004000C694600F0C9FC20B070BDC04610B50C2864D88000404B1B589F464B06591ACB01FF2292019446634401225CE04B06591ACB013A4A18
:4003400094466344042254E04B06591ACB01374A9446634402224CE04B06591ACB01344A94466344042244E04B06591ACB01314A9446634401223CE04B06591ACB012E4A14
:4003800094466344012234E04B06591ACB012B4A9446634402222CE04B06591ACB01284A94466344022224E04B06591ACB01254A9446634402221CE04B06591ACB01224A88
:4003C00094466344042214E04B06591ACB011F4A9446634401220CE04B06591ACB011C4A94466344042204E0002000F043FD02220023012A02D11878C0B200E00020022A95
:4004000003D11978587800020843042A09D11A785878000210439A7812041043DB781B06184310BD28170000C13F0000C53F0000C93F0000D03F0000D13F0000D63F0000E5
:40044000D23F0000D43F0000D83F0000DC3F0000E03F000010B50D4B1B68DB0602D400220B4B1A600A4B1B68802B0ED10022084B1A6000210220FFF74FFF002805D00021C8
:400480000220FFF749FFFFF7E9FE10BD540003408000002070B5050001000320FFF73CFF441CE40129000420FFF736FF241829000320FFF731FF421CD2010023002608E0AF
:4004C0001078411EC9B2FD2900D801261B18DBB20132A242F4D35B42DCB229000120FFF71BFF844203D1002E03D1062002E0062000E0002070BDC04670B50500022803D12D
:400500000022124B1A601DE0FFF7C4FF00280FD015E0611B4B425941C9B263061B1BD8010B4B9C466044FFF7DBFE0134E4B200E00024002CEDD08022044B1A6002E00022A8
:40054000024B1A6000F0D0FC70BDC04680000020D03F0000F0B55F4656464D464446F0B4CE4CA544050000F065FA62B600239A4600270A249946002D01D1FF2300E02B009D
:40058000C74A02A98C4662449621490052A800F06DFA002D01D0013CE4B2002C01D00028E9D1002800D0D7E1BD4B02AA944663441B88062B24D952AA1278012A22D152A9B1
:4005C000CA78120289780A439146110007329A421AD896235B009A4218D84A1D52AB9E5C3202081D1E5C164306315B5C172B0FD181B252A8FFF724FE86420BD100260AE0F5
:40060000042608E0042606E0032604E0032602E0042600E00826002E00D03CE152AB1A7993465A781300313BD9B20A2900D900E18B009C49CB589F46012F00D03CE14B46D5
:40064000002B00D03BE10020FFF724FF4342434152AA1371012278E1012F00D032E14B46012B00D031E15B46002B00D030E18E4B1B681B689A0BD2B2934503D1DB097F228D
:40068000134004E0934501D9002300E0802352AA1371002353717F3393710023D371042253E1342A0DD1012F00D014E14B46032B00D013E14C32002107A801F026F8802319
:4006C0009A46012F00D00CE14B46022B00D80BE107A85044DA1E4821FF3102AB9C46614401F00AF84B4653449BB2832B00D0FEE052AA93791B02527913439A467F2B00D936
:400700000A26002E00D0F9E05B46D801504480B2654B1B681A68D3099BB2520601D001339BB2834200D9EDE007A900F0BBFA002800D1EEE000239A46803399460A2600227C
:4007400003E1012F00D105E104260022FDE0012F00D0E4E04B46534496225200934200D9E0E007A850444A4653A900F0C5FF53464B449BB29A460022E7E04B46002B00D0D4
:40078000D3E004AA494B03CB03C253AA04AB03CB03C200239A4601270822D6E0012F00D0C6E04B46032B00D0C5E052AA93791B025279134398465B46D9014144C901434616
:4007C0007F2B00D90A26002E00D0B7E080220020FFF772FD030001905A46D201424492B25946002911D17F2A0FD10520FFF794FDC0B2019B1B1ADBB2984600210620FFF7EF
:400800008BFDC3B24246D31ADBB25B4252AA137101229AE00020FFF73DFE002802D18022234B1A6000F01EF900F05EFB042600228BE0204B1E68002E00D181E0012F00D0D1
:4008400081E002AB1A704A465A8053AB03930C22002104A800F059FF04AB9B4653AA0692190002A8B0475B469A882623FF339A4203D953AB0699994207D0069B002B01D1DD
:40088000002A05D1049BDEB25FE00E2600225CE00E26002259E0002257E0C04684FDFFFF6E0200005C1700008C00002088170000800000202C0100200426002245E0042615
:4008C000002242E0042600223FE0042600223CE00426002239E00426002236E00426002233E00426002230E0042600222DE000239A46803399460326002226E0802399469E
:40090000002222E000239A46803399460A2600221BE000239A4680339946002215E00426002212E0032600220FE0042600220CE00426002209E00426002206E0002204E0E8
:400940000526002201E00526002252A93000FFF791FC01E000239A46002D00D10BE6012F00D108E69F239B009D443CBC90469946A246AB46F0BDC04670B50020FFF78AFD53
:40098000002801D0062400E00024134D2B681A68C03AC0210020FFF78FFC6B681B78C01AC0B24042C0B2834204D10B4B1B681B68002B02D1002000F05DFA084B1B68402BDD
:4009C00001D0002C05D00022044B1A600020FFF7C1FDFFF745FC70BD8C000020800000200F4B1B685B0619D50E4B1B68DB060BD50D4B1B68002B11D00C4A136000230C4AC4
:400A00001360094A136009E0094B1A68074B1B689A4203D0054B1A68054B1A607047C0464C0F09406400094030010020E4010020D401002010B5094C201D402100F082F823
:400A400020004430002100F05FF8054800F0BCFB0023236000F092FB10BDC04630010020E109000010B500F099FB10BDF8B507000E001500002825D0002925D09A00D318A8
:400A80005C001BE0114B1B78DB0613D5104B1A682A8000220D490A701A602B88321C9E4200D91A1C92B20B490431380000F024FE00200AE0012000F023FA013C002CE1D1DA
:400AC000102002E0012000E00120F8BDDC010020E00100203001002070B50C0000280DD000290DD01180074D2B0044330A000100180000F001FE2C60002002E0012000E05A
:400B0000012070BD3001002070B504000D0000280ED0082000F09AF9064B1C60064B1D600023064A1360064A1360082000F084F970BDC046F0010020E4010020D401002018
:400B4000D801002070B504000D0000280CD0082000F07CF9054B1C60054B1D600022054B1A60082000F068F970BDC046EC010020E8010020E0010020024B186880090123F3
:400B8000184070470400044082B0134B0093134B0193134B6A461A601249134A1160C0461B681B0F1B07F0221206934204D10C4B1B68FF2018400DE0094B1B681B0F1B070E
:400BC000A0221206934204D0054B1B68FF20184000E0002002B07047B6E90000B4010020080010401600008004001040104B114A1A601149114A1160C0461B681B0F1B07DE
:400C0000F0221206934204D1094B1B68FF2018400DE0074B1B681B0F1B07A0221206934204D0034B1B68FF20184000E00020704708001040B6E80000150000800400104023
:400C400082B0134B0093134B0193134B6A461A601249134A1160C0461B681B0F1B07F0221206934204D10C4B1B68FF2018400DE0094B1B681B0F1B07A0221206934204D021
:400C8000054B1B68FF20184000E0002002B07047B6EA0000B401002008001040170000800400104030B5A5B004000023239322937F2872D8002970D0802202A800F01CFD4E
:400CC000384B00937F230193374B6A461A603749374A1160C0461B681B0F1B07F0221206934204D1304B1B68FF2213400DE02E4B1B681B0F1B07A0221206934204D02A4B42
:400D00001B68FF22134000E000232393239B002B45D100F012FA0500FFF736FF2290229B002B02D1FFF762FF2390239B002B25D1204A0092009A2404144300941A4A6946C6
:400D400011601D481A490860C0461268120F1207F02109068A4204D1134B1B68FF2213400BE0114A1268120F1207A02109068A4203D00D4B1B68FF2213402393229B002BAC
:400D800007D1FFF75DFF2290229B002B01D0229B2393280000F0D5F901E004232393239825B030BDB6D70000080010400400008004001040B6D800000500008070B5040011
:400DC00000F0BBF90500102C05D8104A136803218B43136016E0202C07D80C490B6803229343023A13430B600CE0302C07D807490B6803229343013A13430B6002E0002033
:400E000000F038F8280000F09CF970BD30001040024A1168024B0B401360704700000740FFFFFFBF034B18688023DB05184000D001207047000007401F2318401E3B834060
:400E4000014A13607047C04600E100E01F2318401E3B8340014A13607047C04680E100E01F2318401E3B8340014A13607047C04680E200E001BE704770B504000D000F286E
:400E800002D90020FFF7F6FF1034A40080239B059C4664442068256070BDC04670B504000E00032902D90020FFF7E4FF0F2C02D90020FFF7DFFF03252540ED00063500F071
:400EC0003CF9A408A400074B9C46644421680323AB4099430B003100A9401943216000F030F970BD00E400E0034A13681B041B0C02490B43136070470CED00E00400FA0562
:400F000010B5040006E0084B586800F00DF9074B9C46644480231B029C42F4D8024B9868604300F001F910BD940000200080FFFF30B583B000F0CEF8002849D000F0FDF8E6
:400F40000400244B196889001C2319401831224B1B689B0803221340D940204B1A68204B1340204A4A438020C00184466244D20B013A5205520D1343A02252031A431000D4
:400F8000192902D8184A13430CE0184BCB181B781A39174A525C9A18FF2A00D9FF229205030013430D4A1360124D2B6801933020FFF704FF104A13688021C9050B431360D3
:400FC0001420FFF79DFF019B2B60200000F0B9F803B030BD080F0340280003400800074000F800C040420F000000D43FCDF1FF0F901700003000104000000740F0B583B021
:40100000040018280BD01C2809D0202807D0242805D0282803D02C2801D0302849D100F08CF80190FFF7FEFE002803D0FFF7F0FE012600E00026214A136807218B43136028
:401040001F4BE3181B78DBB21E4A13601E4A13688B4313601D4803687F22934319001C4BE3181B7813400B430360322000F05CF8182C16D9114F3B680725AB431A00230070
:401080001C3B9B082B4013433B60322000F04CF83A68AA432300183B9B082C001C4014433C60012E01D1FFF743FF019800F049F802E00020FFF7DEFE03B0F0BD080F0340A0
:4010C000CDF1FF0F0C0F0340100F0340180F0340B4F1FF0F034B1B68002B01DA012000E00020704700000740014A024B1A6070476588EDAC38000340044A1368DBB201210F
:401100008B430840184310607047C0460001044004490A68D2B204239A4380001840104308607047000104400230800803D001300238FCD1C046C0467047EFF3108072B6D4
:40114000704780F31088704710B50820FFF774FE10BDC04610B500F0A3F810BD10B500F039F810BD10B5044A1368802109060B431360FFF7E9FF10BD0000094010B5064BF5
:401180001B78002B04D1FFF7E9FF0122024B1A70FFF7E8FF10BDC046CC01002010B50820FFF754FEFFF7D6FF054A13685B005B0813600022034B1A600820FFF751FE10BD08
:4011C00000000940880F0940014B58607047C046CC01002010B500241B4B1C601B4A1C4B1A601C4B1C4A13601C4A14601C491D4A11601D4A13601D4B1C600820FFF726FEB0
:4012000003210820FFF74AFE19490820FFF734FE184B1C60184B1C604C22FF32174B1A60174B1C60174B1C60174B1C603C3AFF3A164B1A70164B1C70164B1C60164B1C605E
:40124000164B1C7010BDC0460000094077080040600009400701008000030940040309401000FE00100309400002094004020940AD120000C80E0940880E0940480F094078
:40128000080F0940C80F0940880F0940F5010020DC010020D4010020E0010020F40100201022014B1A707047F501002010B5C84B1B68002B00D09847C64B1B68DB0702D559
:4012C0000022C54B1A60C54B1B789B0622D4C44B1A680223FF331A421CD0C04B1B78DB070AD5C04A137802218B431370117809230B43DBB213700AE0BA4A137820218B43D5
:401300001370117870235B420B43DBB213700022B24B1A70B14B1B789B0600D5B4E1AF4B1B78DB0600D499E1AD4B1B689B0740D50222AD4B1A60AD490B681D321A400968C9
:4013400080231B020B4000D001239B18A84A1278D2B2934206D2A34A117804230B43DBB2137006E0A24A12789B1AA2490A68D31A0B60A04B1A68A04B1A6000239F4A1360FC
:401380009B4A13709E4B1A68802149020A431A6019689C4A0A401A60924A137802218B431370117801230B43DBB2137010228B4B1A708B4B1B681B0739D508228A4B1A6002
:4013C000914B1B689B040CD414E0904B1A68904909688A188F490968C9B211701A6801321A608D4B1B68DB06EFD1874A11688B4B0B4013608A4B1B689B0605D5794A117865
:4014000040230B43DBB213700022864B1A60864A834B1A60734A137820218B431370117810230B43DBB213706C4B10221A706C4B1B685B0648D501227C4B1A607C4B1B6899
:40144000DB0610D50F326D4B1A606B4B1A68694B1A60644A117802230B43DBB2137012225E4B1A7025E0734B1B68684A12689B1A072B03D804226B4B1A6011E0082B06D127
:40148000614A1368A02109020B43136008E05E4A1368802189010B4313600822614B1A60504A117820230B43DBB2137011224B4B1A70614A4C4B1A60604A116808230B43C3
:4014C000136001225E4B1A605E4B1B681B072AD5584B1B684D4A1068181A0838082802D9002408200EE001240CE0484B1A68484909688A1847490968C9B211701A6801327E
:401500001A6001380028F0D1002C08D03E4A1368802109020B4313600022424B1A6008223F4B1A6025E0474B1B685B0721D5394B1B68364A11683F4A126891420DD20121FB
:401540003F4A1160314A1168314800684118DBB20B7013680133136008E00222384B1A60204A117840230B43DBB2137004222C4B1A60354B1B68DB0620D485E01D4B1A681E
:40158000324B1B689A420CD21A4B1A68304909688A181278D2B22F490A601A6801321A600CE0FF222B4B1A60114B1B78DBB20A2B04D80F4A13780133DBB213700B4B1B6854
:4015C0001F221340082BD9D10F3A234B1A605BE0D00100208C0E0940880E0940F50100204C0F0940DC010020400F094008020940F4010020D8010020D4010020880F0940D6
:4016000004020940FFFFFEFF60000940E0010020EC0100204003094008030940FF5FFFFFC00F0940C80F0940ED0F0000800E094064000940E8010020FF0F0000480F0940FE
:401640006C000940CC0F09408C0F0940E4010020F001002040020940800F09400B4A13685B005B0813601021094B1970094B1868094901401960186808490140196013683F
:40168000802109060B43136010BDC04600000940F501002060000940FF5FFFFFFFFCFFFF014B18687047C046080100200E4B70B500251E000D4CE41AA410A54204D0AB00A5
:4016C000F35898470135F8E700F070F8084B00251E00084CE41AA410A54204D0AB00F35898470135F8E770BDB8170000B8170000B8170000C0170000002310B59A4203D00A
:40170000CC5CC4540133F9E710BD03008218934202D019700133FAE770470000801800007700000000000000E8030000260300003803000048030000580300006803000080
:40174000780300009803000088030000A8030000B8030000C8030000D8030000380600005806000032080000A206000042070000320800004E0700007A070000A20600003D
:401780009C07000014080000A911091900320101EEDBC9B9AA9B8E82766B60564D443B332C241D17100A044300000000F8B5C046F8BC08BC9E46704729010000F10100005D
:4017C000F8B5C046F8BC08BC9E46704701010000E01700008800002088000000E8000000000000001C17000020170000010000000000E02EC05D00001800000000366E01BF
:401800000000000000000000000000000000000000000000000000000000000000000000A717000000000000000000000000000000000000000000000000000000000000EA
:401840000000000000000000000000000000000000000000000000000000000000000000A800002000000000000000000000000000000000000000000000000000000000A0
:401880000000000000000000000000000000000000000000000000000000000000000000000000000000000000000000000000000000000000000000000000000000000028
:4018C00000000000000000000000000000000000000000000000000000000000000000000000000000000000000000000000000000000000000000000000000000000000E8
:4019000000000000000000000000000000000000000000000000000000000000000000000000000000000000000000000000000000000000000000000000000000000000A7
:401940000000000000000000000000000000000000000000000000000000000000000000000000000000000000000000000000000000000000000000000000000000000067
:403FC00000000000000000000000000000000000000000000100000000000000000000000000000000000000000000000000000000000000000000000000000000000000C0
:0200000490303A
:020000006CFF93
:0200000490402A
:1000000000000000000000000000000000000000F0
:0200000490501A
:0C0000000002190911A9000119107EA8C6
:0200000490600A
:0100000001FE
:00000001FF