:400000000010002011000000AB010000AB01000010B500F0CFFE00F095F900F0CFF8000010B572B6184A194B194C1A608022194BD2021A600522184B18201A60174B823238
:40004000FF321A60164B863AFF3A1A60154B05321A60154B033A1A60144A154B1A601223236000F045FEE022124B12011A60124A124B1A600022124B1A60124B40321A6055
:400080001123236010BDC046EEEE00000003024030001040080004400001044008010440000204400802044000030440A40D0000080304400003014040FF00800000014018
:4000C000280003400401014000000000000000000000000000000000000000000000000000000000000000000000000000000000000000000000000000000000000000004F
:4001000010B5064C2378002B07D1054B002B02D0044800E000BF0123237010BD1001002000000000A8130000084B10B5002B03D00749084800E000BF07480368002B00D157
:4001400010BD064B002BFBD09847F9E70000000014010020A8130000880000200000000010B562B6012000F02DFE012000F042FE012000F033FE00F0EBFB041E09D0002077
:4001800000F020FEFA20800000F03EFD00F0F0FA0AE000F023FE200000F02CFEFA2000F033FD200000F01EF9FEE710B501F0BAF803680C2B00D1FEE7FEE70000F8B50025A0
:4001C0000F49104B01394A1C14D000221F685C689E68A018B24203D0B858A0500432F8E70200DE68141AA64201D020C2FAE710330139E8E701F09CF8FFF7B2FFFEE7C0466C
:4002000001000000F4130000002370B50B480C4C0C4D9A002100032B00D8A95801338150202BF6D1FFF7FCFE074B1A68002A00D11A608022054B92051A6070BD0000002008
:40024000AB010000000000008000002008ED00E00047002310B5002A05D0013A4418A45C1B19DBB2F7E7180010BDF0B57F230C000100A1B099430B000D006946C20980354C
:40028000CE1A1F78F7540133AB42FAD17F2318400C5490B200F0C8FB21B0F0BD013810B50B2830D8C901494201F028F806080A0C0E10141216191B20164B13E0164B16E09F
:4002C000164B0AE0164B12E0164B0BE0164B09E0164B02E0164B00E0164BC91814E0164B05E0164BC9180878C0B211E0144BC9180A7848788C780002230418430300C87858
:400300001343000603E000210B7848780002184310BDC046C07F0000C17F0000C57F0000C97F0000D07F0000D17F0000D67F0000D27F0000D47F0000D87F0000DC7F000095
:40034000E07F00000C4B10B51A68102313400B4A00D113601368802B0DD10024022021001460FFF79BFFA04205D021000220FFF795FFFFF76DFF10BD540003408000002008
:40038000F8B5010006000320FFF788FF040031000420FFF783FF0134E4012718002431000320FFF77BFF25000130C001B84209D203785A1ED2B2FD2A00D80125E418E4B2BD
:4003C0000130F3E731000120FFF768FF6442E4B20623844203D16A4255416D422B401800F8BD000070B50400094D02280BD0FFF7C7FF002807D1614261410648C9B2FFF7D7
:4004000034FF802300E000232B6000F0F1FB70BD80000020D07F0000F0B5BD4CA54400F0F9F962B6002401949621FF2302AA490008A800F00BFA0028F6D102AB1988062937
:4004400000D885E01A7E0423012A4ED102AA568BF21D8A427ED8962149008A427AD808AA92199279172A40D1F3189BB2002B08D09EAAA849D21852181278013B801880B228
:40048000F3E708AB9B195A7940421B79120280B21A430823824228D15EE0342B00D0C6E0019B012B54D1032E52D18022002153A800F06DFF80241F2153AB1819F21E02AB49
:4004C0003619C918B6B200F059FF832E00D0FCE002AA02AB907F5B7F000218430400FF2800D8F8E0012301930933002702A8012143763B0AC376002302AA02320176391D57
:400500001780877689B2002909D09EA8814D40184019007801391B189BB289B2F3E79EA97D48C9195B4208189BB203707B481B0A081803707A4B0737CB18172108A81970A1
:40054000B9B2962300F0B6F96EE7019B012B46D00423CAE70323C8E702AB1D7F5B7E180031380A282ED96F4A1768002F26D0019A012A25D105AD02AA1371D680002109AED3
:400580000C222800049600F002FFAE60290003A8B8472623AF88FF339F4202D9AB68B34207D0AA68002A01D1002F04D12B68DBB29CE70E2399E70E23170097E7052395E75C
:4005C000052392E700F0A4FEC1FF1700CFFF69FF3900CFFF3E00510069FF62007400002EB6D13000FFF7CCFE4342434102AA1377019F33007AE7019B012BA9D1012EA7D1E6
:40060000002DA5D1484B1B681B68DA0BD2B2DB09DBB2002A01D080235B0002AA13771B0A5377FF23937700230427D3775EE7019B012B8DD1022E8BD93DE7019B012B87D17F
:400640000024F1E6019B012B82D12C333719FF339F4200DD7EE753AB1819320009A900F08DFE0023BCB21F0040E7002E00D06FE705AB19002D4A082711CA11C109AA03CB0A
:4006800003C201233400019333002FE7019B012B00D05DE7032E00D05AE702AA02AB977F5B7F3F021F430A23FF2F00D91DE741E00020FFF765FE002802D180221C4B1A60E6
:4006C00000F0C0F800F094FA42E7012300240193023327000AE7144B1B681A68D3099BB2520601D001339BB22802201880B2984204D20123002401930933EAE753A900F032
:4007000093F90028F5D10123040001930300E0E784FDFFFFA7FDFFFFACFDFFFFADFDFFFFAEFDFFFF2C0100208C000020AC130000800000202902C919C90180220020FFF7B9
:4007400088FD0600002D0DD1FF2F0BD129000520FFF7A4FD2900361A0620FFF79FFDF6B2361AF6B202AB76421E7701270023BDE670B50020FFF704FE114E431E98413368CA
:4007800006241D6840422A000440C03AC0210020FFF75FFD73681B78181AC0B2834201D1002D02D1002000F021FA064B1A68402A01D0002C01D000221A60FFF72DFEC046AB
:4007C0008C000020800000200D4B1B685B0615D50C4B1B68DB0609D50B4B1A68002A0DD00A490A6000220A490A6006E0084B074A18681168884201D012681A607047C046A4
:400800004C0F09406400094030010020E4010020D401002010B5094C4021201D00F07EF820000021443000F05BF8054800F032FB0023236000F00AFB10BDC04630010020DD
:40084000C907000010B500F00FFB10BDF7B506000D0001920120002E24D0002922D00A2410275C43002C1CD00F4803783B4213D00E4A019913689BB20B80002101701160D6
:400880002A1C9D4200D91A1C094992B20431300000F074FD002005E0012000F0B5F9013CE0E71020FEBDC046DC010020E00100203001002070B501230C0000280CD000291E
:4008C0000AD0064D11802B0044330A000100180000F054FD00232C60180070BD3001002070B504000D0000280ED0082000F06AF9064B074A1C60074B08201D60002313608D
:40090000054A136000F054F970BDC046F0010020D4010020E4010020D801002070B504000D0000280CD0082000F04CF90022054B08201C60044B1D60044B1A6000F038F91E
:4009400070BDC046EC010020E8010020E0010020024B18684006C00F7047C0460400044082B06A460B4B0C4900930C4B01930C4B1A600C4A1160C0461A68120F0F2A04D0ED
:400980001A680020120F0A2A01D01868C0B202B07047C046B6E9000016000080B40100200800104004001040094B0A4A0A491A600A4A1160C0461A68120F0F2A04D01A68E6
:4009C0000020120F0A2A01D01868C0B27047C04608001040B6E80000150000800400104082B06A460B4B0C4900930C4B01930C4B1A600C4A1160C0461A68120F0F2A04D0CA
:400A00001A680020120F0A2A01D01868C0B202B07047C046B6EA000017000080B40100200800104004001040F0B50024A7B0029406000394FF2854D8A14252D0802206A8DA
:400A400000F09CFC294B04AF04937F23284D7B60284A294B2F601360C0462B6801921B0F0F2B03D02B681B0F0A2B01D02C68E4B20294029B002B36D100F0D3F90400FFF7EB
:400A80006FFF0390039B002B02D1FFF78DFF0290029B002B16D1194A19490492049A0198360416430496124A2F600160C0462968090F0F2903D01168090F0A2901D0136801
:400AC000DBB20293039B002B07D1FFF789FF0390039B002B01D0039B0293200000F0A5F901E004230293029827B0F0BDB6D70000080010400400104004000080B6D80000A1
:400B00000500008010B5040000F08BF9102C04D803210C4A13688B430FE0202C05D80321084A13688B43023906E0302C06D80321044A13688B4301390B43136000F075F9D2
:400B400010BDC04630001040024A034B11680B401360704700000740FFFFFFBF024B18684000C00F7047C04600000740024B8000C31818681960704740000020F8B5032629
:400B800005003540B5400F0004000635AE40AF4000F047F9A408054BA400E4182368B3431F43276000F041F9F8BDC04600E400E01F2318401E3B8340014A13607047C0468B
:400BC00000E100E01F2318401E3B8340014A13607047C04680E100E01F2318401E3B8340014A13607047C04680E200E001BE7047034A044913689BB20B4313607047C046F9
:400C00000CED00E00400FA0570B5802504002D02064BAC4205D9586800F0FAF8044BE418F6E79868604300F0F3F870BD940000200080FFFF37B500F0B7F8002842D000F062
:400C4000F0F81C21204B214A1B6812689B008A400B40920F1833D34080251D491D4A04000868ED0110401C4A5A435219D20B013A0243192B01D8194B0EE0194D1948181878
:400C8000EB18A0251A3B00781B786D031B182A43FF2B00D9FF239B051A43134D0A602B6830200193FFF72EFF8021104AC905136814200B431360FFF7A7FF019B20002B605A
:400CC00000F0B3F837BDC046080F0340280003400800074000F800C040420F000000D43FB4130000CDF1FF0F3000104000000740F7B50500183D0400182D45D80126234B94
:400D00003700EB409F433FD100F08BF80190FFF725FF0097002802D0FFF716FF009607271B4E1C4A33681C49BB4333601B4BE3181B78DBB213601A4A1368BB431360194BD9
:400D40000A68E31818787F239A43034013430B60322000F05DF8182C0ED033681C3CA408BB433C401C433460322000F051F83368AD08BB431D433560009B012B01D1FFF7D1
:400D800059FF019800F051F8F7BDC04611111101080F03400C0F0340180F0340CDF1FF0F100F0340B4F1FF0F014B1868C00F704700000740014A024B1A6070476588EDAC30
:400DC00038000340012304490A689A43D2B2034013430B607047C046000104400423044980000A689A43D2B2034013430B60704700010440012304490A689A43D2B20340E0
:400E000013430B607047C04600020440000000000230800803D001300238FCD1C046C0467047EFF3108072B6704780F3108870478021054A10B5136809060B43136008202B
:400E4000FFF7B6FE10BDC0460000094010B5054C2378002B03D100F023F801232370FFF7E7FF10BDCC01002010B50820FFF7AAFE00F07CF8054A082013685B005B08136092
:400E80000022034B1A60FFF7A7FE10BD00000940880F0940014B58607047C046CC01002010B500241B4B1C4A1C601C4B1C491A601C4B1D4A082013601C4A14601C4A116078
:400EC0001C4A13601C4B1C60FFF77CFE03210820FFF754FE19490820FFF748FE4C22184BFF321C60174B1C60174B1A60174B3C3A1C60174BFF3A1C60164B1C60164B1A7001
:400F0000164B1C70164B1C60164B1C60164B1C7010BDC0460000094077080040600009401000FE00070100800003094004030940100309400002094004020940790F0000E9
:400F4000C80E0940880E0940480F0940080F0940C80F0940880F0940F5010020DC010020D4010020E0010020F40100201022014B1A707047F5010020BB4BF7B51B68002B20
:400F800000D09847B94B1B68DB0702D50022B84B1A602020B74B1A78024219D1B64A11680222FF32114213D01978B44AC90706D511781E38814311701178073004E0117812
:400FC00081431170902110780143117000221A701A78920600D546E110201A78024200D12DE10222A4480168114234D0A449A54D0A60A5491D320C6809682240A34C09045E
:40100000C90F26788A189D49B24204D204260A7832430A7004E027782E68D21BB21A2A602D689B4A156000229A4D2A6080252270994C6D0222682A4322602568974A2A4093
:40104000226002240A78A2430A700A78013C22430A7010221A7008220168114235D088490A608F4A1168890417D58E498E4F1F258E4C24682C420CD06E460C683D682C19E2
:401080008B4D2D68F571F57925700C6801340C60EDE71468874921401160874A774915681400AA0603D540250A782A430A700025824A1560824A226020240A78A2430A7002
:4010C0000A78103C22430A701C70026852063ED501217C4A11607C4A68491068102210420BD06C4802606A4A1068664A106002200A7802430A7012221DE0744A694812685C
:401100000068121A0420072A0ED96548082A05D1A024026824022243026007E080240268A401224302600820644A106020200A7802430A70112208211A70654A504B1A603D
:40114000644A13680B4313600122634B1A600821624B1A680A4225D05C4B524A1B681068083B1B1A01208B4201D900200B004E4C4F4D002B0AD011682668013B71182E685B
:40118000F6B20E70116801311160F2E7002807D08020434900020A6802430A60474A136008221FE01B685B071ED5414B3D491A68464B0C681868484B84420BD201201860D9
:4011C00039480B680068D2B2C3181A700B6801330B6006E0022240211A60284A13780B4313700422344B1A603D4B1B68DB063AD51F21FF253B4B24481C68224A03680B40CF
:40120000082B18D0384B17681B68384E9F4208D21368E3181B78DBB23360136801331360ECE73560194E33780A2BE7D833780133DBB23370E2E710222D4B1A6013E02D49AF
:401240000A68520052080A601870154B194A186802401A601868284A02401A6080220B68120613430B60F7BDD00100208C0E0940880E0940F50100204C0F0940DC010020A5
:40128000400F0940D801002008020940F4010020D4010020880F094004020940FFFFFEFF60000940E0010020EC0100200803094040030940FF5FFFFFC00F0940C80F0940EB
:4012C000ED0F0000800E094064000940E8010020FF0F0000480F09406C000940CC0F09408C0F0940F0010020E401002040020940800F094000000940FFFCFFFF02B47146D2
:4013000049084900095C49008E4402BC7047C04603B47146490840004900095E49008E4403BC7047014B18687047C046080100200E4B70B500251E000D4CE41AA410A54273
:4013400004D0AB00F35898470135F8E700F040F8084B00251E00084CE41AA410A54204D0AB00F35898470135F8E770BDDC130000DC130000DC130000E4130000002310B56D
:401380009A4203D0CC5CC4540133F9E710BD03008218934202D019700133FAE77047000000150000F800000000000000A9110B1900320101EEDBC9B9AA9B8E82766B60566E
:4013C0004D443B332C241D17100A044300000000F8B5C046F8BC08BC9E4670472901000009020000F8B5C046F8BC08BC9E46704701010000081400008800002088000000FA
:40140000E80000000000000000000000A0130000A4130000010000000000E02EC05D00001800000000366E0100000000000000000000000000000000000000000000000071
:401440000000000000000000CB130000000000000000000000000000000000000000000000000000000000000000000000000000000000000000000000000000000000008E
:401480000000000000000000A80000200000000000000000000000000000000000000000000000000000000000000000000000000000000000000000000000000000000064
:4014C00000000000000000000000000000000000000000000000000000000000000000000000000000000000000000000000000000000000000000000000000000000000EC
:4015000000000000000000000000000000000000000000000000000000000000000000000000000000000000000000000000000000000000000000000000000000000000AB
:40154000000000000000000000000000000000000000000000000000000000000000000000000000000000000000000000000000000000000000000000000000000000006B
:40158000000000000000000000000000000000000000000000000000000000000000000000000000000000000000000000000000000000000000000000000000000000002B
:407FC0000000000000000000000000000000000000000000010000000000000000000000000000000000000000000000000000000000000000000000000000000000000080
:0200000490303A
:020000004FDCD3
:0200000490402A
:200000000000000000000000000000000000000000000000000000000000000000000000E0
:0200000490501A
:0C0000000002190B11A900011911618503
:0200000490600A
:0100000001FE
:00000001FF